:100000000C9462000C948A000C948A000C948A0070
:100010000C948A000C948A000C948A000C948A0038
:100020000C948A000C948A000C948A000C948A0028
:100030000C948A000C948A000C948A000C948A0018
:100040000C9409040C948A000C9479040C945304C5
:100050000C948A000C948A000C948A000C948A00F8
:100060000C948A000C948A000000000024002700F1
:100070002A0000000000250028002B0000000000DE
:1000800023002600290004040404040404040202DA
:100090000202020203030303030301020408102007
:1000A0004080010204081020010204081020000012
:1000B0000008000201000003040700000000000027
:1000C00000006A0511241FBECFEFD8E0DEBFCDBF10
:1000D00011E0A0E0B1E0E2E8FBE002C005900D9283
:1000E000AE35B107D9F722E0AEE5B1E001C01D920F
:1000F000A830B207E1F710E0C2E6D0E004C02197D3
:10010000FE010E94B905C136D107C9F70E94AB04B0
:100110000C94BF050C940000833081F028F48130EA
:1001200099F08230A9F008958730A9F08830C9F09D
:100130008430B1F4809180008F7D03C08091800075
:100140008F7780938000089584B58F7784BD08955C
:1001500084B58F7DFBCF8091B0008F778093B00006
:1001600008958091B0008F7DF9CFCF93DF93282F32
:1001700030E0F901E255FF4F8491F901E656FF4F57
:10018000D491F901EA57FF4FC491CC23A1F081111A
:100190000E948C00EC2FF0E0EE0FFF1FE458FF4FA1
:1001A000A591B491EC91ED2381E090E009F480E019
:1001B000DF91CF91089580E090E0FACF1F93CF9325
:1001C000DF93282F30E0F901E255FF4F8491F901C8
:1001D000E656FF4FD491F901EA57FF4FC491CC2363
:1001E000A9F0162F81110E948C00EC2FF0E0EE0F89
:1001F000FF1FEE58FF4FA591B4918FB7F894EC9183
:10020000111108C0D095DE23DC938FBFDF91CF9111
:100210001F910895DE2BF8CFCF93DF9390E0FC0180
:10022000E656FF4F24918A579F4FFC018491882303
:10023000D1F090E0880F991FFC01E859FF4FA5917C
:10024000B491FC01EE58FF4FC591D49161110EC0DD
:100250009FB7F8948C91E22FE0958E238C932881A0
:10026000E223E8839FBFDF91CF9108958FB7F89481
:10027000EC91E22BEC938FBFF6CF8E50806480938D
:100280007C0080917A00806480937A0080917A006B
:1002900086FDFCCF809178009091790008953FB75A
:1002A000F8948091630190916401A0916501B091EF
:1002B000660126B5A89B05C02F3F19F00196A11D28
:1002C000B11D3FBFBA2FA92F982F8827BC01CD01A0
:1002D000620F711D811D911D42E0660F771F881FFF
:1002E000991F4A95D1F708958F929F92AF92BF922E
:1002F000CF92DF92EF92FF924B015C010E944F017F
:100300006B017C010E944F016C197D098E099F09C8
:10031000683E734081059105A8F321E0821A910897
:10032000A108B10888EEC80E83E0D81EE11CF11CBC
:1003300081149104A104B10429F7FF90EF90DF909C
:10034000CF90BF90AF909F908F9008954F925F9203
:100350006F927F92AF92BF92CF92DF92EF92FF9215
:100360000F931F93CF93DF9300D000D01F92CDB790
:10037000DEB719821A821B821C821D8261E084E032
:100380000E940C0160E084E00E94DE0062E170E007
:1003900080E090E00E94740161E084E00E94DE0051
:1003A0008BE990E00197F1F760E084E00E940C0196
:1003B00001E117E284E00E94B500892BC9F40150E5
:1003C0001109C1F78EEF9FEF0F900F900F900F90D4
:1003D0000F90DF91CF911F910F91FF90EF90DF90E1
:1003E000CF90BF90AF907F906F905F904F900895A7
:1003F00001E117E284E00E94B500019721F4015069
:100400001109C1F7DFCF28E2E22EF12C17E000E05E
:10041000CC24C394D12C91E1A92E97E2B92E84E08B
:100420000E94B500892B29F481E0A81AB108B9F718
:10043000C9CF0E944F012B013C0181E1A82E87E228
:10044000B82E84E00E94B500019729F481E0A81A33
:10045000B108B9F7B7CF0E944F0164197509860931
:100460009709693271058105910578F0E1E0F0E0C6
:10047000EC0FFD1FE00FF11D80819601012E01C0E0
:10048000220F0A94EAF7822B8083111121C00F5F9B
:1004900017E081E0E81AF10809F0BDCF8981282F23
:1004A00030E030936801209367012B81422F50E0A8
:1004B00050936A0140936901280F81E090E03D81EB
:1004C000231302C090E080E09195819591097CCF43
:1004D0001150DFCFAF92BF92CF92DF92EF92FF9297
:1004E0000F931F93CF93DF936C017B018B01040F5C
:1004F000151FEB015E01AE18BF08C017D10759F0F8
:100500006991D601ED91FC910190F081E02DC60139
:100510000995892B79F7C501DF91CF911F910F9133
:10052000FF90EF90DF90CF90BF90AF900895FC01C7
:10053000538D448D252F30E0842F90E0821B930B48
:10054000541710F0CF96089501970895FC01918DEE
:10055000828D981761F0A28DAE0FBF2FB11D5D96F1
:100560008C91928D9F5F9F73928F90E008958FEF93
:100570009FEF0895FC01918D828D981731F0828D47
:10058000E80FF11D858D90E008958FEF9FEF08959E
:10059000FC01918D228D892F90E0805C9F4F821B02
:1005A00091098F73992708958BE691E00E94C80204
:1005B00021E0892B09F420E0822F089580E090E06B
:1005C000892B29F00E94D40281110C940000089517
:1005D000FC01A48DA80FB92FB11DA35ABF4F2C91B8
:1005E000848D90E001968F739927848FA689B789AF
:1005F0002C93A089B1898C91837080648C93938DA6
:10060000848D981306C00288F389E02D80818F7D48
:1006100080830895EF92FF920F931F93CF93DF9300
:10062000EC0181E0888F9B8D8C8D98131AC0E8892E
:10063000F989808185FF15C09FB7F894EE89FF89FD
:100640006083E889F98980818370806480839FBF9B
:1006500081E090E0DF91CF911F910F91FF90EF909B
:100660000895F62E0B8D10E00F5F1F4F0F731127AB
:10067000E02E8C8D8E110CC00FB607FCFACFE889E6
:10068000F989808185FFF5CFCE010E94E802F1CF84
:10069000EB8DEC0FFD2FF11DE35AFF4FF0829FB75A
:1006A000F8940B8FEA89FB8980818062CFCFCF934A
:1006B000DF93EC01888D8823B9F0AA89BB89E8898A
:1006C000F9898C9185FD03C0808186FD0DC00FB630
:1006D00007FCF7CF8C9185FFF2CF808185FFEDCFAE
:1006E000CE010E94E802E9CFDF91CF910895FC018D
:1006F00001900020E9F73197AF01481B590BBC016D
:100700008BE691E00C946A028F929F92AF92BF9217
:10071000CF92DF92EF92FF920F931F93CF93DF93CD
:10072000CDB7DEB7A1970FB6F894DEBF0FBECDBF31
:100730006C01990FEE08FF08F7FE47C06DE28BE6EB
:1007400091E00E940A038C0122273327A9012C196A
:100750003D094E095F0919A2CE0181967C019AE0FC
:10076000892E912CA12CB12CCA01B901A5019401AB
:100770000E949705605DF70162937F0121153105A5
:100780004105510589F790E080E0309719F0CF01DD
:100790000E947703080F191F82E191E00E947703FE
:1007A000800F911FA1960FB6F894DEBF0FBECDBF8C
:1007B000DF91CF911F910F91FF90EF90DF90CF903D
:1007C000BF90AF909F908F900895A701960119A2B6
:1007D0008E010F5D1F4F8AE0C82ED12CE12CF12C29
:1007E000CA01B901A70196010E949705605DF80151
:1007F00062938F01211531054105510589F7309725
:1008000029F0CF010E9477038C01C6CF10E000E0F1
:10081000C3CF1F920F920FB60F9211242F933F93C5
:100820008F939F93AF93BF9380915F0190916001ED
:10083000A0916101B091620130915E0123E0230F2C
:100840002D3758F50196A11DB11D20935E018093AF
:100850005F0190936001A0936101B0936201809168
:10086000630190916401A0916501B09166010196C8
:10087000A11DB11D8093630190936401A093650154
:10088000B0936601BF91AF919F918F913F912F914E
:100890000F900FBE0F901F90189526E8230F029619
:1008A000A11DB11DD2CF1F920F920FB60F9211242E
:1008B0002F933F934F935F936F937F938F939F9368
:1008C000AF93BF93EF93FF938BE691E00E94E80212
:1008D000FF91EF91BF91AF919F918F917F916F9118
:1008E0005F914F913F912F910F900FBE0F901F90EE
:1008F00018951F920F920FB60F9211242F938F937A
:100900009F93EF93FF93E0917B01F0917C018081B5
:10091000E0918101F091820182FD1BC09081809164
:1009200084018F5F8F7320918501821741F0E091E0
:100930008401F0E0E559FE4F958F80938401FF918B
:10094000EF919F918F912F910F900FBE0F901F905D
:1009500018958081F4CF789484B5826084BD84B585
:10096000816084BD85B5826085BD85B5816085BDAA
:1009700080916E00816080936E0010928100809162
:1009800081008260809381008091810081608093EA
:100990008100809180008160809380008091B1000F
:1009A00084608093B1008091B00081608093B0003A
:1009B00080917A00846080937A0080917A008260CE
:1009C00080937A0080917A00816080937A00809190
:1009D0007A00806880937A001092C10060E08FE016
:1009E0000E940C0160E08EE00E940C0160E084E057
:1009F0000E940C01E0917B01F0917C0182E08083F8
:100A0000E0917701F09178011082E0917901F09105
:100A10007A018FEC808310928301E0917F01F09145
:100A2000800186E08083E0917D01F0917E018081EC
:100A300080618083E0917D01F0917E0180818860FA
:100A40008083E0917D01F0917E01808180688083C8
:100A5000E0917D01F0917E0180818F7D8083C0E0F7
:100A6000D0E085E191E00E9477038FE00E943D0194
:100A70000E94840384E291E00E9477038EE00E944A
:100A80003D010E94840384E391E00E9477030E9469
:100A9000A6018091690190916A010E9484038AE411
:100AA00091E00E9477030E94A601809167019091D6
:100AB00068010E94840368EE73E080E090E00E9489
:100AC0007401209771F20E94D402882351F20E948F
:100AD0000000C7CFEBE6F1E01382128288EE93E0CC
:100AE000A0E0B0E084839583A683B78384E091E09F
:100AF0009183808385EC90E09587848784EC90E0F7
:100B00009787868780EC90E0918B808B81EC90E0DA
:100B1000938B828B82EC90E0958B848B86EC90E0BB
:100B2000978B868B118E128E138E148E0895A1E2F0
:100B30001A2EAA1BBB1BFD010DC0AA1FBB1FEE1F57
:100B4000FF1FA217B307E407F50720F0A21BB30BA2
:100B5000E40BF50B661F771F881F991F1A9469F71E
:100B600060957095809590959B01AC01BD01CF017A
:100B70000895EE0FFF1F0590F491E02D0994F8946D
:020B8000FFCFA5
:100B8200000000000A036A0297025703C802A60285
:100B9200BA020D0A000A4C69676874206C657665B2
:100BA2006C3A2000536F696C2068756D69646974D2
:100BB200793A2000416D6269656E742074656D70CA
:100BC200657261747572653A2000416D6269656E85
:0E0BD200742068756D69646974793A200000BA
:00000001FF
